{
  "_format": "hh-sol-artifact-1",
  "contractName": "MyEpicNFT",
  "sourceName": "contracts/MyEpicNFT.sol",
  "abi": [
    {
      "inputs": [],
      "stateMutability": "nonpayable",
      "type": "constructor"
    },
    {
      "anonymous": false,
      "inputs": [
        {
          "indexed": true,
          "internalType": "address",
          "name": "owner",
          "type": "address"
        },
        {
          "indexed": true,
          "internalType": "address",
          "name": "approved",
          "type": "address"
        },
        {
          "indexed": true,
          "internalType": "uint256",
          "name": "tokenId",
          "type": "uint256"
        }
      ],
      "name": "Approval",
      "type": "event"
    },
    {
      "anonymous": false,
      "inputs": [
        {
          "indexed": true,
          "internalType": "address",
          "name": "owner",
          "type": "address"
        },
        {
          "indexed": true,
          "internalType": "address",
          "name": "operator",
          "type": "address"
        },
        {
          "indexed": false,
          "internalType": "bool",
          "name": "approved",
          "type": "bool"
        }
      ],
      "name": "ApprovalForAll",
      "type": "event"
    },
    {
      "anonymous": false,
      "inputs": [
        {
          "indexed": false,
          "internalType": "address",
          "name": "sender",
          "type": "address"
        },
        {
          "indexed": false,
          "internalType": "uint256",
          "name": "tokenId",
          "type": "uint256"
        }
      ],
      "name": "NewEpicNFTMinted",
      "type": "event"
    },
    {
      "anonymous": false,
      "inputs": [
        {
          "indexed": true,
          "internalType": "address",
          "name": "from",
          "type": "address"
        },
        {
          "indexed": true,
          "internalType": "address",
          "name": "to",
          "type": "address"
        },
        {
          "indexed": true,
          "internalType": "uint256",
          "name": "tokenId",
          "type": "uint256"
        }
      ],
      "name": "Transfer",
      "type": "event"
    },
    {
      "inputs": [
        {
          "internalType": "address",
          "name": "to",
          "type": "address"
        },
        {
          "internalType": "uint256",
          "name": "tokenId",
          "type": "uint256"
        }
      ],
      "name": "approve",
      "outputs": [],
      "stateMutability": "nonpayable",
      "type": "function"
    },
    {
      "inputs": [
        {
          "internalType": "address",
          "name": "owner",
          "type": "address"
        }
      ],
      "name": "balanceOf",
      "outputs": [
        {
          "internalType": "uint256",
          "name": "",
          "type": "uint256"
        }
      ],
      "stateMutability": "view",
      "type": "function"
    },
    {
      "inputs": [
        {
          "internalType": "uint256",
          "name": "tokenId",
          "type": "uint256"
        }
      ],
      "name": "getApproved",
      "outputs": [
        {
          "internalType": "address",
          "name": "",
          "type": "address"
        }
      ],
      "stateMutability": "view",
      "type": "function"
    },
    {
      "inputs": [],
      "name": "getTotalNFTsMintedSoFar",
      "outputs": [
        {
          "internalType": "uint256",
          "name": "",
          "type": "uint256"
        }
      ],
      "stateMutability": "view",
      "type": "function"
    },
    {
      "inputs": [
        {
          "internalType": "address",
          "name": "owner",
          "type": "address"
        },
        {
          "internalType": "address",
          "name": "operator",
          "type": "address"
        }
      ],
      "name": "isApprovedForAll",
      "outputs": [
        {
          "internalType": "bool",
          "name": "",
          "type": "bool"
        }
      ],
      "stateMutability": "view",
      "type": "function"
    },
    {
      "inputs": [],
      "name": "makeAnEpicNFT",
      "outputs": [],
      "stateMutability": "nonpayable",
      "type": "function"
    },
    {
      "inputs": [],
      "name": "name",
      "outputs": [
        {
          "internalType": "string",
          "name": "",
          "type": "string"
        }
      ],
      "stateMutability": "view",
      "type": "function"
    },
    {
      "inputs": [
        {
          "internalType": "uint256",
          "name": "tokenId",
          "type": "uint256"
        }
      ],
      "name": "ownerOf",
      "outputs": [
        {
          "internalType": "address",
          "name": "",
          "type": "address"
        }
      ],
      "stateMutability": "view",
      "type": "function"
    },
    {
      "inputs": [
        {
          "internalType": "uint256",
          "name": "tokenId",
          "type": "uint256"
        }
      ],
      "name": "pickRandomColor",
      "outputs": [
        {
          "internalType": "string",
          "name": "",
          "type": "string"
        }
      ],
      "stateMutability": "view",
      "type": "function"
    },
    {
      "inputs": [
        {
          "internalType": "uint256",
          "name": "tokenId",
          "type": "uint256"
        }
      ],
      "name": "pickRandomFirstWord",
      "outputs": [
        {
          "internalType": "string",
          "name": "",
          "type": "string"
        }
      ],
      "stateMutability": "view",
      "type": "function"
    },
    {
      "inputs": [
        {
          "internalType": "uint256",
          "name": "tokenId",
          "type": "uint256"
        }
      ],
      "name": "pickRandomSecondWord",
      "outputs": [
        {
          "internalType": "string",
          "name": "",
          "type": "string"
        }
      ],
      "stateMutability": "view",
      "type": "function"
    },
    {
      "inputs": [
        {
          "internalType": "uint256",
          "name": "tokenId",
          "type": "uint256"
        }
      ],
      "name": "pickRandomThirdWord",
      "outputs": [
        {
          "internalType": "string",
          "name": "",
          "type": "string"
        }
      ],
      "stateMutability": "view",
      "type": "function"
    },
    {
      "inputs": [
        {
          "internalType": "address",
          "name": "from",
          "type": "address"
        },
        {
          "internalType": "address",
          "name": "to",
          "type": "address"
        },
        {
          "internalType": "uint256",
          "name": "tokenId",
          "type": "uint256"
        }
      ],
      "name": "safeTransferFrom",
      "outputs": [],
      "stateMutability": "nonpayable",
      "type": "function"
    },
    {
      "inputs": [
        {
          "internalType": "address",
          "name": "from",
          "type": "address"
        },
        {
          "internalType": "address",
          "name": "to",
          "type": "address"
        },
        {
          "internalType": "uint256",
          "name": "tokenId",
          "type": "uint256"
        },
        {
          "internalType": "bytes",
          "name": "_data",
          "type": "bytes"
        }
      ],
      "name": "safeTransferFrom",
      "outputs": [],
      "stateMutability": "nonpayable",
      "type": "function"
    },
    {
      "inputs": [
        {
          "internalType": "address",
          "name": "operator",
          "type": "address"
        },
        {
          "internalType": "bool",
          "name": "approved",
          "type": "bool"
        }
      ],
      "name": "setApprovalForAll",
      "outputs": [],
      "stateMutability": "nonpayable",
      "type": "function"
    },
    {
      "inputs": [
        {
          "internalType": "bytes4",
          "name": "interfaceId",
          "type": "bytes4"
        }
      ],
      "name": "supportsInterface",
      "outputs": [
        {
          "internalType": "bool",
          "name": "",
          "type": "bool"
        }
      ],
      "stateMutability": "view",
      "type": "function"
    },
    {
      "inputs": [],
      "name": "symbol",
      "outputs": [
        {
          "internalType": "string",
          "name": "",
          "type": "string"
        }
      ],
      "stateMutability": "view",
      "type": "function"
    },
    {
      "inputs": [
        {
          "internalType": "uint256",
          "name": "tokenId",
          "type": "uint256"
        }
      ],
      "name": "tokenURI",
      "outputs": [
        {
          "internalType": "string",
          "name": "",
          "type": "string"
        }
      ],
      "stateMutability": "view",
      "type": "function"
    },
    {
      "inputs": [
        {
          "internalType": "address",
          "name": "from",
          "type": "address"
        },
        {
          "internalType": "address",
          "name": "to",
          "type": "address"
        },
        {
          "internalType": "uint256",
          "name": "tokenId",
          "type": "uint256"
        }
      ],
      "name": "transferFrom",
      "outputs": [],
      "stateMutability": "nonpayable",
      "type": "function"
    }
  ],
  "bytecode": "0x608060405260405180610100016040528060d3815260200162004e5760d39139600990805190602001906200003692919062000f19565b5060405180608001604052806056815260200162004f2a60569139600a90805190602001906200006892919062000f19565b506040518061020001604052806040518060400160405280600b81526020017f4272696c6c69616e746c7900000000000000000000000000000000000000000081525081526020016040518060400160405280600a81526020017f5374756e6e696e676c790000000000000000000000000000000000000000000081525081526020016040518060400160405280600981526020017f426c617a696e676c79000000000000000000000000000000000000000000000081525081526020016040518060400160405280600981526020017f52616469616e746c79000000000000000000000000000000000000000000000081525081526020016040518060400160405280600981526020017f44617a7a696e676c79000000000000000000000000000000000000000000000081525081526020016040518060400160405280600a81526020017f496e6372656469626c790000000000000000000000000000000000000000000081525081526020016040518060400160405280600981526020017f466162756f75736c79000000000000000000000000000000000000000000000081525081526020016040518060400160405280600d81526020017f4173746f6e697368696e676c790000000000000000000000000000000000000081525081526020016040518060400160405280600981526020017f4f6276696f75736c79000000000000000000000000000000000000000000000081525081526020016040518060400160405280600a81526020017f52656d61726b61626c790000000000000000000000000000000000000000000081525081526020016040518060400160405280600a81526020017f556e636f6d6d6f6e6c790000000000000000000000000000000000000000000081525081526020016040518060400160405280600981526020017f416d617a696e676c79000000000000000000000000000000000000000000000081525081526020016040518060400160405280600c81526020017f506172746963756c61726c79000000000000000000000000000000000000000081525081526020016040518060400160405280600f81526020017f45787472616f7264696e6172696c79000000000000000000000000000000000081525081526020016040518060400160405280600b81526020017f576f6e64657266756c6c7900000000000000000000000000000000000000000081525081526020016040518060400160405280600a81526020017f506f77657266756c6c7900000000000000000000000000000000000000000000815250815250600b9060106200043592919062000faa565b506040518061020001604052806040518060400160405280600b81526020017f4f75747374616e64696e6700000000000000000000000000000000000000000081525081526020016040518060400160405280600a81526020017f496d70726573736976650000000000000000000000000000000000000000000081525081526020016040518060400160405280600581526020017f50726f756400000000000000000000000000000000000000000000000000000081525081526020016040518060400160405280600b81526020017f4368616c6c656e67696e6700000000000000000000000000000000000000000081525081526020016040518060400160405280600881526020017f4578636974696e6700000000000000000000000000000000000000000000000081525081526020016040518060400160405280600b81526020017f496d6167696e617469766500000000000000000000000000000000000000000081525081526020016040518060400160405280600b81526020017f4578747261766167616e7400000000000000000000000000000000000000000081525081526020016040518060400160405280600981526020017f46616e746173746963000000000000000000000000000000000000000000000081525081526020016040518060400160405280600981526020017f5768696d736963616c000000000000000000000000000000000000000000000081525081526020016040518060400160405280600881526020017f46616e636966756c00000000000000000000000000000000000000000000000081525081526020016040518060400160405280600881526020017f4f726967696e616c00000000000000000000000000000000000000000000000081525081526020016040518060400160405280600781526020017f4f6666626561740000000000000000000000000000000000000000000000000081525081526020016040518060400160405280600981526020017f566973696f6e617279000000000000000000000000000000000000000000000081525081526020016040518060400160405280600c81526020017f456e74657270726973696e67000000000000000000000000000000000000000081525081526020016040518060400160405280600a81526020017f50726f647563746976650000000000000000000000000000000000000000000081525081526020016040518060400160405280600981526020017f416d626974696f75730000000000000000000000000000000000000000000000815250815250600c9060106200080292919062000faa565b50604051806101e001604052806040518060400160405280600b81526020017f506572666f726d616e636500000000000000000000000000000000000000000081525081526020016040518060400160405280600381526020017f4a6f62000000000000000000000000000000000000000000000000000000000081525081526020016040518060400160405280600481526020017f466561740000000000000000000000000000000000000000000000000000000081525081526020016040518060400160405280600781526020017f50726f6a6563740000000000000000000000000000000000000000000000000081525081526020016040518060400160405280600b81526020017f556e64657274616b696e6700000000000000000000000000000000000000000081525081526020016040518060400160405280600781526020017f50726f647563740000000000000000000000000000000000000000000000000081525081526020016040518060400160405280600b81526020017f416368696576656d656e7400000000000000000000000000000000000000000081525081526020016040518060400160405280600381526020017f416374000000000000000000000000000000000000000000000000000000000081525081526020016040518060400160405280600e81526020017f4163636f6d706c6973686d656e7400000000000000000000000000000000000081525081526020016040518060400160405280600a81526020017f41747461696e6d656e740000000000000000000000000000000000000000000081525081526020016040518060400160405280600881526020017f4372656174696f6e00000000000000000000000000000000000000000000000081525081526020016040518060400160405280600481526020017f446565640000000000000000000000000000000000000000000000000000000081525081526020016040518060400160405280600681526020017f4566666f7274000000000000000000000000000000000000000000000000000081525081526020016040518060400160405280600781526020017f537563636573730000000000000000000000000000000000000000000000000081525081526020016040518060400160405280600781526020017f547269756d706800000000000000000000000000000000000000000000000000815250815250600d90600f62000b9492919062001011565b506040518060e001604052806040518060400160405280600381526020017f726564000000000000000000000000000000000000000000000000000000000081525081526020016040518060400160405280600781526020017f233038633241380000000000000000000000000000000000000000000000000081525081526020016040518060400160405280600581526020017f626c61636b00000000000000000000000000000000000000000000000000000081525081526020016040518060400160405280601681526020017f68736c61283231312c203936252c203632252c2031290000000000000000000081525081526020016040518060400160405280600681526020017f79656c6c6f77000000000000000000000000000000000000000000000000000081525081526020016040518060400160405280600481526020017f626c75650000000000000000000000000000000000000000000000000000000081525081526020016040518060400160405280600681526020017f707572706c650000000000000000000000000000000000000000000000000000815250815250600e90600762000d4d92919062001078565b5034801562000d5b57600080fd5b506040518060400160405280600981526020017f5371756172654e465400000000000000000000000000000000000000000000008152506040518060400160405280600681526020017f5351554152450000000000000000000000000000000000000000000000000000815250816000908051906020019062000de092919062000f19565b50806001908051906020019062000df992919062000f19565b50505062000e476040518060400160405280601781526020017f54686973206973206d79204e465420636f6e747261637400000000000000000081525062000e4d60201b620014041760201c565b62001299565b62000eed8160405160240162000e649190620011ad565b6040516020818303038152906040527f41304fac000000000000000000000000000000000000000000000000000000007bffffffffffffffffffffffffffffffffffffffffffffffffffffffff19166020820180517bffffffffffffffffffffffffffffffffffffffffffffffffffffffff838183161783525050505062000ef060201b60201c565b50565b60008151905060006a636f6e736f6c652e6c6f679050602083016000808483855afa5050505050565b82805462000f279062001223565b90600052602060002090601f01602090048101928262000f4b576000855562000f97565b82601f1062000f6657805160ff191683800117855562000f97565b8280016001018555821562000f97579182015b8281111562000f9657825182559160200191906001019062000f79565b5b50905062000fa69190620010df565b5090565b82805482825590600052602060002090810192821562000ffe579160200282015b8281111562000ffd57825182908051906020019062000fec92919062000f19565b509160200191906001019062000fcb565b5b5090506200100d9190620010fe565b5090565b82805482825590600052602060002090810192821562001065579160200282015b82811115620010645782518290805190602001906200105392919062000f19565b509160200191906001019062001032565b5b509050620010749190620010fe565b5090565b828054828255906000526020600020908101928215620010cc579160200282015b82811115620010cb578251829080519060200190620010ba92919062000f19565b509160200191906001019062001099565b5b509050620010db9190620010fe565b5090565b5b80821115620010fa576000816000905550600101620010e0565b5090565b5b8082111562001122576000818162001118919062001126565b50600101620010ff565b5090565b508054620011349062001223565b6000825580601f1062001148575062001169565b601f016020900490600052602060002090810190620011689190620010df565b5b50565b60006200117982620011d1565b620011858185620011dc565b935062001197818560208601620011ed565b620011a28162001288565b840191505092915050565b60006020820190508181036000830152620011c981846200116c565b905092915050565b600081519050919050565b600082825260208201905092915050565b60005b838110156200120d578082015181840152602081019050620011f0565b838111156200121d576000848401525b50505050565b600060028204905060018216806200123c57607f821691505b6020821081141562001253576200125262001259565b5b50919050565b7f4e487b7100000000000000000000000000000000000000000000000000000000600052602260045260246000fd5b6000601f19601f8301169050919050565b613bae80620012a96000396000f3fe608060405234801561001057600080fd5b50600436106101215760003560e01c80636352211e116100ad578063b88d4fde11610071578063b88d4fde14610340578063c575757a1461035c578063c87b56dd1461038c578063de9d132f146103bc578063e985e9c5146103c657610121565b80636352211e1461027657806370a08231146102a657806395d89b41146102d6578063a22cb465146102f4578063b187301f1461031057610121565b8063095ea7b3116100f4578063095ea7b3146101c257806323b872dd146101de5780632de38d68146101fa57806342842e0e1461022a578063514dc8c61461024657610121565b806301ffc9a714610126578063060475901461015657806306fdde0314610174578063081812fc14610192575b600080fd5b610140600480360381019061013b9190612730565b6103f6565b60405161014d9190613424565b60405180910390f35b61015e6104d8565b60405161016b919061369f565b60405180910390f35b61017c6104e2565b604051610189919061343f565b60405180910390f35b6101ac60048036038101906101a79190612782565b610574565b6040516101b99190613394565b60405180910390f35b6101dc60048036038101906101d791906126f4565b6105f9565b005b6101f860048036038101906101f391906125ee565b610711565b005b610214600480360381019061020f9190612782565b610771565b604051610221919061343f565b60405180910390f35b610244600480360381019061023f91906125ee565b61088f565b005b610260600480360381019061025b9190612782565b6108af565b60405161026d919061343f565b60405180910390f35b610290600480360381019061028b9190612782565b6109cd565b60405161029d9190613394565b60405180910390f35b6102c060048036038101906102bb9190612589565b610a7f565b6040516102cd919061369f565b60405180910390f35b6102de610b37565b6040516102eb919061343f565b60405180910390f35b61030e600480360381019061030991906126b8565b610bc9565b005b61032a60048036038101906103259190612782565b610d4a565b604051610337919061343f565b60405180910390f35b61035a6004803603810190610355919061263d565b610e68565b005b61037660048036038101906103719190612782565b610eca565b604051610383919061343f565b60405180910390f35b6103a660048036038101906103a19190612782565b610fe8565b6040516103b3919061343f565b60405180910390f35b6103c461113a565b005b6103e060048036038101906103db91906125b2565b611370565b6040516103ed9190613424565b60405180910390f35b60007f80ac58cd000000000000000000000000000000000000000000000000000000007bffffffffffffffffffffffffffffffffffffffffffffffffffffffff1916827bffffffffffffffffffffffffffffffffffffffffffffffffffffffff191614806104c157507f5b5e139f000000000000000000000000000000000000000000000000000000007bffffffffffffffffffffffffffffffffffffffffffffffffffffffff1916827bffffffffffffffffffffffffffffffffffffffffffffffffffffffff1916145b806104d157506104d08261149d565b5b9050919050565b6000600854905090565b6060600080546104f19061393e565b80601f016020809104026020016040519081016040528092919081815260200182805461051d9061393e565b801561056a5780601f1061053f5761010080835404028352916020019161056a565b820191906000526020600020905b81548152906001019060200180831161054d57829003601f168201915b5050505050905090565b600061057f82611507565b6105be576040517f08c379a00000000000000000000000000000000000000000000000000000000081526004016105b5906135ff565b60405180910390fd5b6004600083815260200190815260200160002060009054906101000a900473ffffffffffffffffffffffffffffffffffffffff169050919050565b6000610604826109cd565b90508073ffffffffffffffffffffffffffffffffffffffff168373ffffffffffffffffffffffffffffffffffffffff161415610675576040517f08c379a000000000000000000000000000000000000000000000000000000000815260040161066c9061365f565b60405180910390fd5b8073ffffffffffffffffffffffffffffffffffffffff16610694611573565b73ffffffffffffffffffffffffffffffffffffffff1614806106c357506106c2816106bd611573565b611370565b5b610702576040517f08c379a00000000000000000000000000000000000000000000000000000000081526004016106f99061353f565b60405180910390fd5b61070c838361157b565b505050565b61072261071c611573565b82611634565b610761576040517f08c379a00000000000000000000000000000000000000000000000000000000081526004016107589061367f565b60405180910390fd5b61076c838383611712565b505050565b606060006107a56107818461196e565b604051602001610791919061332e565b604051602081830303815290604052611b1b565b9050600b80549050816107b891906139b9565b9050600b81815481106107f4577f4e487b7100000000000000000000000000000000000000000000000000000000600052603260045260246000fd5b9060005260206000200180546108099061393e565b80601f01602080910402602001604051908101604052809291908181526020018280546108359061393e565b80156108825780601f1061085757610100808354040283529160200191610882565b820191906000526020600020905b81548152906001019060200180831161086557829003601f168201915b5050505050915050919050565b6108aa83838360405180602001604052806000815250610e68565b505050565b606060006108e36108bf8461196e565b6040516020016108cf9190613372565b604051602081830303815290604052611b1b565b9050600e80549050816108f691906139b9565b9050600e8181548110610932577f4e487b7100000000000000000000000000000000000000000000000000000000600052603260045260246000fd5b9060005260206000200180546109479061393e565b80601f01602080910402602001604051908101604052809291908181526020018280546109739061393e565b80156109c05780601f10610995576101008083540402835291602001916109c0565b820191906000526020600020905b8154815290600101906020018083116109a357829003601f168201915b5050505050915050919050565b6000806002600084815260200190815260200160002060009054906101000a900473ffffffffffffffffffffffffffffffffffffffff169050600073ffffffffffffffffffffffffffffffffffffffff168173ffffffffffffffffffffffffffffffffffffffff161415610a76576040517f08c379a0000000000000000000000000000000000000000000000000000000008152600401610a6d9061357f565b60405180910390fd5b80915050919050565b60008073ffffffffffffffffffffffffffffffffffffffff168273ffffffffffffffffffffffffffffffffffffffff161415610af0576040517f08c379a0000000000000000000000000000000000000000000000000000000008152600401610ae79061355f565b60405180910390fd5b600360008373ffffffffffffffffffffffffffffffffffffffff1673ffffffffffffffffffffffffffffffffffffffff168152602001908152602001600020549050919050565b606060018054610b469061393e565b80601f0160208091040260200160405190810160405280929190818152602001828054610b729061393e565b8015610bbf5780601f10610b9457610100808354040283529160200191610bbf565b820191906000526020600020905b815481529060010190602001808311610ba257829003601f168201915b5050505050905090565b610bd1611573565b73ffffffffffffffffffffffffffffffffffffffff168273ffffffffffffffffffffffffffffffffffffffff161415610c3f576040517f08c379a0000000000000000000000000000000000000000000000000000000008152600401610c36906134ff565b60405180910390fd5b8060056000610c4c611573565b73ffffffffffffffffffffffffffffffffffffffff1673ffffffffffffffffffffffffffffffffffffffff16815260200190815260200160002060008473ffffffffffffffffffffffffffffffffffffffff1673ffffffffffffffffffffffffffffffffffffffff16815260200190815260200160002060006101000a81548160ff0219169083151502179055508173ffffffffffffffffffffffffffffffffffffffff16610cf9611573565b73ffffffffffffffffffffffffffffffffffffffff167f17307eab39ab6107e8899845ad3d59bd9653f200f220920489ca2b5937696c3183604051610d3e9190613424565b60405180910390a35050565b60606000610d7e610d5a8461196e565b604051602001610d6a91906132c7565b604051602081830303815290604052611b1b565b9050600c8054905081610d9191906139b9565b9050600c8181548110610dcd577f4e487b7100000000000000000000000000000000000000000000000000000000600052603260045260246000fd5b906000526020600020018054610de29061393e565b80601f0160208091040260200160405190810160405280929190818152602001828054610e0e9061393e565b8015610e5b5780601f10610e3057610100808354040283529160200191610e5b565b820191906000526020600020905b815481529060010190602001808311610e3e57829003601f168201915b5050505050915050919050565b610e79610e73611573565b83611634565b610eb8576040517f08c379a0000000000000000000000000000000000000000000000000000000008152600401610eaf9061367f565b60405180910390fd5b610ec484848484611b4e565b50505050565b60606000610efe610eda8461196e565b604051602001610eea91906132a5565b604051602081830303815290604052611b1b565b9050600d8054905081610f1191906139b9565b9050600d8181548110610f4d577f4e487b7100000000000000000000000000000000000000000000000000000000600052603260045260246000fd5b906000526020600020018054610f629061393e565b80601f0160208091040260200160405190810160405280929190818152602001828054610f8e9061393e565b8015610fdb5780601f10610fb057610100808354040283529160200191610fdb565b820191906000526020600020905b815481529060010190602001808311610fbe57829003601f168201915b5050505050915050919050565b6060610ff382611507565b611032576040517f08c379a0000000000000000000000000000000000000000000000000000000008152600401611029906135df565b60405180910390fd5b60006006600084815260200190815260200160002080546110529061393e565b80601f016020809104026020016040519081016040528092919081815260200182805461107e9061393e565b80156110cb5780601f106110a0576101008083540402835291602001916110cb565b820191906000526020600020905b8154815290600101906020018083116110ae57829003601f168201915b5050505050905060006110dc611baa565b90506000815114156110f2578192505050611135565b60008251111561112757808260405160200161110f9291906131f1565b60405160208183030381529060405292505050611135565b61113084611bc1565b925050505b919050565b60326111466007611c68565b111561115157600080fd5b600061115d6007611c68565b9050600061116a82610771565b9050600061117783610d4a565b9050600061118484610eca565b9050600083838360405160200161119d93929190613215565b604051602081830303815290604052905060006111b9866108af565b90506000600982600a856040516020016111d6949392919061325c565b6040516020818303038152906040529050600061121b846111f684611c76565b6040516020016112079291906132e9565b604051602081830303815290604052611c76565b90506000816040516020016112309190613350565b604051602081830303815290604052905061127f6040518060400160405280601581526020017f0a2d2d2d2d2d2d2d2d2d2d2d2d2d2d2d2d2d2d2d2d0000000000000000000000815250611404565b61128881611404565b6112c66040518060400160405280601581526020017f2d2d2d2d2d2d2d2d2d2d2d2d2d2d2d2d2d2d2d2d0a0000000000000000000000815250611404565b6001600860008282546112d99190613773565b925050819055506112ea338a611e34565b6112f48982611e52565b6112fe6007611ec6565b611321604051806060016040528060258152602001613b14602591398a33611edc565b61132c600854611f7b565b7febb98688741ffa4c7589bf325de30cf7becb63de567842e1ccdb6cb949fdc82c338a60405161135d9291906133fb565b60405180910390a1505050505050505050565b6000600560008473ffffffffffffffffffffffffffffffffffffffff1673ffffffffffffffffffffffffffffffffffffffff16815260200190815260200160002060008373ffffffffffffffffffffffffffffffffffffffff1673ffffffffffffffffffffffffffffffffffffffff16815260200190815260200160002060009054906101000a900460ff16905092915050565b61149a81604051602401611418919061343f565b6040516020818303038152906040527f41304fac000000000000000000000000000000000000000000000000000000007bffffffffffffffffffffffffffffffffffffffffffffffffffffffff19166020820180517bffffffffffffffffffffffffffffffffffffffffffffffffffffffff8381831617835250505050612014565b50565b60007f01ffc9a7000000000000000000000000000000000000000000000000000000007bffffffffffffffffffffffffffffffffffffffffffffffffffffffff1916827bffffffffffffffffffffffffffffffffffffffffffffffffffffffff1916149050919050565b60008073ffffffffffffffffffffffffffffffffffffffff166002600084815260200190815260200160002060009054906101000a900473ffffffffffffffffffffffffffffffffffffffff1673ffffffffffffffffffffffffffffffffffffffff1614159050919050565b600033905090565b816004600083815260200190815260200160002060006101000a81548173ffffffffffffffffffffffffffffffffffffffff021916908373ffffffffffffffffffffffffffffffffffffffff160217905550808273ffffffffffffffffffffffffffffffffffffffff166115ee836109cd565b73ffffffffffffffffffffffffffffffffffffffff167f8c5be1e5ebec7d5bd14f71427d1e84f3dd0314c0f7b2291e5b200ac8c7c3b92560405160405180910390a45050565b600061163f82611507565b61167e576040517f08c379a00000000000000000000000000000000000000000000000000000000081526004016116759061351f565b60405180910390fd5b6000611689836109cd565b90508073ffffffffffffffffffffffffffffffffffffffff168473ffffffffffffffffffffffffffffffffffffffff1614806116f857508373ffffffffffffffffffffffffffffffffffffffff166116e084610574565b73ffffffffffffffffffffffffffffffffffffffff16145b8061170957506117088185611370565b5b91505092915050565b8273ffffffffffffffffffffffffffffffffffffffff16611732826109cd565b73ffffffffffffffffffffffffffffffffffffffff1614611788576040517f08c379a000000000000000000000000000000000000000000000000000000000815260040161177f9061361f565b60405180910390fd5b600073ffffffffffffffffffffffffffffffffffffffff168273ffffffffffffffffffffffffffffffffffffffff1614156117f8576040517f08c379a00000000000000000000000000000000000000000000000000000000081526004016117ef906134df565b60405180910390fd5b61180383838361203d565b61180e60008261157b565b6001600360008573ffffffffffffffffffffffffffffffffffffffff1673ffffffffffffffffffffffffffffffffffffffff168152602001908152602001600020600082825461185e9190613854565b925050819055506001600360008473ffffffffffffffffffffffffffffffffffffffff1673ffffffffffffffffffffffffffffffffffffffff16815260200190815260200160002060008282546118b59190613773565b92505081905550816002600083815260200190815260200160002060006101000a81548173ffffffffffffffffffffffffffffffffffffffff021916908373ffffffffffffffffffffffffffffffffffffffff160217905550808273ffffffffffffffffffffffffffffffffffffffff168473ffffffffffffffffffffffffffffffffffffffff167fddf252ad1be2c89b69c2b068fc378daa952ba7f163c4a11628f55a4df523b3ef60405160405180910390a4505050565b606060008214156119b6576040518060400160405280600181526020017f30000000000000000000000000000000000000000000000000000000000000008152509050611b16565b600082905060005b600082146119e85780806119d190613970565b915050600a826119e191906137c9565b91506119be565b60008167ffffffffffffffff811115611a2a577f4e487b7100000000000000000000000000000000000000000000000000000000600052604160045260246000fd5b6040519080825280601f01601f191660200182016040528015611a5c5781602001600182028036833780820191505090505b5090505b60008514611b0f57600182611a759190613854565b9150600a85611a8491906139b9565b6030611a909190613773565b60f81b818381518110611acc577f4e487b7100000000000000000000000000000000000000000000000000000000600052603260045260246000fd5b60200101907effffffffffffffffffffffffffffffffffffffffffffffffffffffffffffff1916908160001a905350600a85611b0891906137c9565b9450611a60565b8093505050505b919050565b600081604051602001611b2e91906131da565b6040516020818303038152906040528051906020012060001c9050919050565b611b59848484611712565b611b6584848484612042565b611ba4576040517f08c379a0000000000000000000000000000000000000000000000000000000008152600401611b9b9061349f565b60405180910390fd5b50505050565b606060405180602001604052806000815250905090565b6060611bcc82611507565b611c0b576040517f08c379a0000000000000000000000000000000000000000000000000000000008152600401611c029061363f565b60405180910390fd5b6000611c15611baa565b90506000815111611c355760405180602001604052806000815250611c60565b80611c3f8461196e565b604051602001611c509291906131f1565b6040516020818303038152906040525b915050919050565b600081600001549050919050565b60606000825190506000811415611c9f5760405180602001604052806000815250915050611e2f565b60006003600283611cb09190613773565b611cba91906137c9565b6004611cc691906137fa565b90506000602082611cd79190613773565b67ffffffffffffffff811115611d16577f4e487b7100000000000000000000000000000000000000000000000000000000600052604160045260246000fd5b6040519080825280601f01601f191660200182016040528015611d485781602001600182028036833780820191505090505b5090506000604051806060016040528060408152602001613b39604091399050600181016020830160005b86811015611dec5760038101905062ffffff818a015116603f8160121c168401518060081b905060ff603f83600c1c1686015116810190508060081b905060ff603f8360061c1686015116810190508060081b905060ff603f831686015116810190508060e01b90508084526004840193505050611d73565b506003860660018114611e065760028114611e1657611e21565b613d3d60f01b6002830352611e21565b603d60f81b60018303525b508484525050819450505050505b919050565b611e4e8282604051806020016040528060008152506121d9565b5050565b611e5b82611507565b611e9a576040517f08c379a0000000000000000000000000000000000000000000000000000000008152600401611e919061359f565b60405180910390fd5b80600660008481526020019081526020016000209080519060200190611ec1929190612415565b505050565b6001816000016000828254019250508190555050565b611f76838383604051602401611ef493929190613461565b6040516020818303038152906040527fe3849f79000000000000000000000000000000000000000000000000000000007bffffffffffffffffffffffffffffffffffffffffffffffffffffffff19166020820180517bffffffffffffffffffffffffffffffffffffffffffffffffffffffff8381831617835250505050612014565b505050565b61201181604051602401611f8f919061369f565b6040516020818303038152906040527ff5b1bba9000000000000000000000000000000000000000000000000000000007bffffffffffffffffffffffffffffffffffffffffffffffffffffffff19166020820180517bffffffffffffffffffffffffffffffffffffffffffffffffffffffff8381831617835250505050612014565b50565b60008151905060006a636f6e736f6c652e6c6f679050602083016000808483855afa5050505050565b505050565b60006120638473ffffffffffffffffffffffffffffffffffffffff16612234565b156121cc578373ffffffffffffffffffffffffffffffffffffffff1663150b7a0261208c611573565b8786866040518563ffffffff1660e01b81526004016120ae94939291906133af565b602060405180830381600087803b1580156120c857600080fd5b505af19250505080156120f957506040513d601f19601f820116820180604052508101906120f69190612759565b60015b61217c573d8060008114612129576040519150601f19603f3d011682016040523d82523d6000602084013e61212e565b606091505b50600081511415612174576040517f08c379a000000000000000000000000000000000000000000000000000000000815260040161216b9061349f565b60405180910390fd5b805181602001fd5b63150b7a0260e01b7bffffffffffffffffffffffffffffffffffffffffffffffffffffffff1916817bffffffffffffffffffffffffffffffffffffffffffffffffffffffff1916149150506121d1565b600190505b949350505050565b6121e38383612247565b6121f06000848484612042565b61222f576040517f08c379a00000000000000000000000000000000000000000000000000000000081526004016122269061349f565b60405180910390fd5b505050565b600080823b905060008111915050919050565b600073ffffffffffffffffffffffffffffffffffffffff168273ffffffffffffffffffffffffffffffffffffffff1614156122b7576040517f08c379a00000000000000000000000000000000000000000000000000000000081526004016122ae906135bf565b60405180910390fd5b6122c081611507565b15612300576040517f08c379a00000000000000000000000000000000000000000000000000000000081526004016122f7906134bf565b60405180910390fd5b61230c6000838361203d565b6001600360008473ffffffffffffffffffffffffffffffffffffffff1673ffffffffffffffffffffffffffffffffffffffff168152602001908152602001600020600082825461235c9190613773565b92505081905550816002600083815260200190815260200160002060006101000a81548173ffffffffffffffffffffffffffffffffffffffff021916908373ffffffffffffffffffffffffffffffffffffffff160217905550808273ffffffffffffffffffffffffffffffffffffffff16600073ffffffffffffffffffffffffffffffffffffffff167fddf252ad1be2c89b69c2b068fc378daa952ba7f163c4a11628f55a4df523b3ef60405160405180910390a45050565b8280546124219061393e565b90600052602060002090601f016020900481019282612443576000855561248a565b82601f1061245c57805160ff191683800117855561248a565b8280016001018555821561248a579182015b8281111561248957825182559160200191906001019061246e565b5b509050612497919061249b565b5090565b5b808211156124b457600081600090555060010161249c565b5090565b60006124cb6124c6846136eb565b6136ba565b9050828152602081018484840111156124e357600080fd5b6124ee8482856138fc565b509392505050565b60008135905061250581613ab7565b92915050565b60008135905061251a81613ace565b92915050565b60008135905061252f81613ae5565b92915050565b60008151905061254481613ae5565b92915050565b600082601f83011261255b57600080fd5b813561256b8482602086016124b8565b91505092915050565b60008135905061258381613afc565b92915050565b60006020828403121561259b57600080fd5b60006125a9848285016124f6565b91505092915050565b600080604083850312156125c557600080fd5b60006125d3858286016124f6565b92505060206125e4858286016124f6565b9150509250929050565b60008060006060848603121561260357600080fd5b6000612611868287016124f6565b9350506020612622868287016124f6565b925050604061263386828701612574565b9150509250925092565b6000806000806080858703121561265357600080fd5b6000612661878288016124f6565b9450506020612672878288016124f6565b935050604061268387828801612574565b925050606085013567ffffffffffffffff8111156126a057600080fd5b6126ac8782880161254a565b91505092959194509250565b600080604083850312156126cb57600080fd5b60006126d9858286016124f6565b92505060206126ea8582860161250b565b9150509250929050565b6000806040838503121561270757600080fd5b6000612715858286016124f6565b925050602061272685828601612574565b9150509250929050565b60006020828403121561274257600080fd5b600061275084828501612520565b91505092915050565b60006020828403121561276b57600080fd5b600061277984828501612535565b91505092915050565b60006020828403121561279457600080fd5b60006127a284828501612574565b91505092915050565b6127b481613888565b82525050565b6127c38161389a565b82525050565b60006127d482613730565b6127de8185613746565b93506127ee81856020860161390b565b6127f781613aa6565b840191505092915050565b600061280d8261373b565b6128178185613757565b935061282781856020860161390b565b61283081613aa6565b840191505092915050565b60006128468261373b565b6128508185613768565b935061286081856020860161390b565b80840191505092915050565b600081546128798161393e565b6128838186613768565b9450600182166000811461289e57600181146128af576128e2565b60ff198316865281860193506128e2565b6128b88561371b565b60005b838110156128da578154818901526001820191506020810190506128bb565b838801955050505b50505092915050565b60006128f8603283613757565b91507f4552433732313a207472616e7366657220746f206e6f6e20455243373231526560008301527f63656976657220696d706c656d656e74657200000000000000000000000000006020830152604082019050919050565b600061295e601c83613757565b91507f4552433732313a20746f6b656e20616c7265616479206d696e746564000000006000830152602082019050919050565b600061299e600a83613768565b91507f54484952445f574f5244000000000000000000000000000000000000000000006000830152600a82019050919050565b60006129de602483613757565b91507f4552433732313a207472616e7366657220746f20746865207a65726f2061646460008301527f72657373000000000000000000000000000000000000000000000000000000006020830152604082019050919050565b6000612a44601983613757565b91507f4552433732313a20617070726f766520746f2063616c6c6572000000000000006000830152602082019050919050565b6000612a84600b83613768565b91507f5345434f4e445f574f52440000000000000000000000000000000000000000006000830152600b82019050919050565b6000612ac4602c83613757565b91507f4552433732313a206f70657261746f7220717565727920666f72206e6f6e657860008301527f697374656e7420746f6b656e00000000000000000000000000000000000000006020830152604082019050919050565b6000612b2a600d83613768565b91507f3c2f746578743e3c2f7376673e000000000000000000000000000000000000006000830152600d82019050919050565b6000612b6a600183613768565b91507f20000000000000000000000000000000000000000000000000000000000000006000830152600182019050919050565b6000612baa603883613757565b91507f4552433732313a20617070726f76652063616c6c6572206973206e6f74206f7760008301527f6e6572206e6f7220617070726f76656420666f7220616c6c00000000000000006020830152604082019050919050565b6000612c10602a83613757565b91507f4552433732313a2062616c616e636520717565727920666f7220746865207a6560008301527f726f2061646472657373000000000000000000000000000000000000000000006020830152604082019050919050565b6000612c76602983613757565b91507f4552433732313a206f776e657220717565727920666f72206e6f6e657869737460008301527f656e7420746f6b656e00000000000000000000000000000000000000000000006020830152604082019050919050565b6000612cdc602e83613757565b91507f45524337323155524953746f726167653a2055524920736574206f66206e6f6e60008301527f6578697374656e7420746f6b656e0000000000000000000000000000000000006020830152604082019050919050565b6000612d42600283613768565b91507f227d0000000000000000000000000000000000000000000000000000000000006000830152600282019050919050565b6000612d82602083613757565b91507f4552433732313a206d696e7420746f20746865207a65726f20616464726573736000830152602082019050919050565b6000612dc2603183613757565b91507f45524337323155524953746f726167653a2055524920717565727920666f722060008301527f6e6f6e6578697374656e7420746f6b656e0000000000000000000000000000006020830152604082019050919050565b6000612e28602c83613757565b91507f4552433732313a20617070726f76656420717565727920666f72206e6f6e657860008301527f697374656e7420746f6b656e00000000000000000000000000000000000000006020830152604082019050919050565b6000612e8e602983613757565b91507f4552433732313a207472616e73666572206f6620746f6b656e2074686174206960008301527f73206e6f74206f776e00000000000000000000000000000000000000000000006020830152604082019050919050565b6000612ef4602f83613757565b91507f4552433732314d657461646174613a2055524920717565727920666f72206e6f60008301527f6e6578697374656e7420746f6b656e00000000000000000000000000000000006020830152604082019050919050565b6000612f5a600a83613768565b91507f7b226e616d65223a2022000000000000000000000000000000000000000000006000830152600a82019050919050565b6000612f9a602183613757565b91507f4552433732313a20617070726f76616c20746f2063757272656e74206f776e6560008301527f72000000000000000000000000000000000000000000000000000000000000006020830152604082019050919050565b6000613000600a83613768565b91507f46495253545f574f5244000000000000000000000000000000000000000000006000830152600a82019050919050565b6000613040601d83613768565b91507f646174613a6170706c69636174696f6e2f6a736f6e3b6261736536342c0000006000830152601d82019050919050565b6000613080603183613757565b91507f4552433732313a207472616e736665722063616c6c6572206973206e6f74206f60008301527f776e6572206e6f7220617070726f7665640000000000000000000000000000006020830152604082019050919050565b60006130e6600583613768565b91507f434f4c4f520000000000000000000000000000000000000000000000000000006000830152600582019050919050565b6000613126606583613768565b91507f222c20226465736372697074696f6e223a20224120686967686c7920656e636f60008301527f75726167696e6720636f6c6c656374696f6e206f6620737175617265732e222c60208301527f2022696d616765223a2022646174613a696d6167652f7376672b786d6c3b626160408301527f736536342c0000000000000000000000000000000000000000000000000000006060830152606582019050919050565b6131d4816138f2565b82525050565b60006131e6828461283b565b915081905092915050565b60006131fd828561283b565b9150613209828461283b565b91508190509392505050565b6000613221828661283b565b915061322c82612b5d565b9150613238828561283b565b915061324382612b5d565b915061324f828461283b565b9150819050949350505050565b6000613268828761286c565b9150613274828661283b565b9150613280828561286c565b915061328c828461283b565b915061329782612b1d565b915081905095945050505050565b60006132b082612991565b91506132bc828461283b565b915081905092915050565b60006132d282612a77565b91506132de828461283b565b915081905092915050565b60006132f482612f4d565b9150613300828561283b565b915061330b82613119565b9150613317828461283b565b915061332282612d35565b91508190509392505050565b600061333982612ff3565b9150613345828461283b565b915081905092915050565b600061335b82613033565b9150613367828461283b565b915081905092915050565b600061337d826130d9565b9150613389828461283b565b915081905092915050565b60006020820190506133a960008301846127ab565b92915050565b60006080820190506133c460008301876127ab565b6133d160208301866127ab565b6133de60408301856131cb565b81810360608301526133f081846127c9565b905095945050505050565b600060408201905061341060008301856127ab565b61341d60208301846131cb565b9392505050565b600060208201905061343960008301846127ba565b92915050565b600060208201905081810360008301526134598184612802565b905092915050565b6000606082019050818103600083015261347b8186612802565b905061348a60208301856131cb565b61349760408301846127ab565b949350505050565b600060208201905081810360008301526134b8816128eb565b9050919050565b600060208201905081810360008301526134d881612951565b9050919050565b600060208201905081810360008301526134f8816129d1565b9050919050565b6000602082019050818103600083015261351881612a37565b9050919050565b6000602082019050818103600083015261353881612ab7565b9050919050565b6000602082019050818103600083015261355881612b9d565b9050919050565b6000602082019050818103600083015261357881612c03565b9050919050565b6000602082019050818103600083015261359881612c69565b9050919050565b600060208201905081810360008301526135b881612ccf565b9050919050565b600060208201905081810360008301526135d881612d75565b9050919050565b600060208201905081810360008301526135f881612db5565b9050919050565b6000602082019050818103600083015261361881612e1b565b9050919050565b6000602082019050818103600083015261363881612e81565b9050919050565b6000602082019050818103600083015261365881612ee7565b9050919050565b6000602082019050818103600083015261367881612f8d565b9050919050565b6000602082019050818103600083015261369881613073565b9050919050565b60006020820190506136b460008301846131cb565b92915050565b6000604051905081810181811067ffffffffffffffff821117156136e1576136e0613a77565b5b8060405250919050565b600067ffffffffffffffff82111561370657613705613a77565b5b601f19601f8301169050602081019050919050565b60008190508160005260206000209050919050565b600081519050919050565b600081519050919050565b600082825260208201905092915050565b600082825260208201905092915050565b600081905092915050565b600061377e826138f2565b9150613789836138f2565b9250827fffffffffffffffffffffffffffffffffffffffffffffffffffffffffffffffff038211156137be576137bd6139ea565b5b828201905092915050565b60006137d4826138f2565b91506137df836138f2565b9250826137ef576137ee613a19565b5b828204905092915050565b6000613805826138f2565b9150613810836138f2565b9250817fffffffffffffffffffffffffffffffffffffffffffffffffffffffffffffffff0483118215151615613849576138486139ea565b5b828202905092915050565b600061385f826138f2565b915061386a836138f2565b92508282101561387d5761387c6139ea565b5b828203905092915050565b6000613893826138d2565b9050919050565b60008115159050919050565b60007fffffffff0000000000000000000000000000000000000000000000000000000082169050919050565b600073ffffffffffffffffffffffffffffffffffffffff82169050919050565b6000819050919050565b82818337600083830152505050565b60005b8381101561392957808201518184015260208101905061390e565b83811115613938576000848401525b50505050565b6000600282049050600182168061395657607f821691505b6020821081141561396a57613969613a48565b5b50919050565b600061397b826138f2565b91507fffffffffffffffffffffffffffffffffffffffffffffffffffffffffffffffff8214156139ae576139ad6139ea565b5b600182019050919050565b60006139c4826138f2565b91506139cf836138f2565b9250826139df576139de613a19565b5b828206905092915050565b7f4e487b7100000000000000000000000000000000000000000000000000000000600052601160045260246000fd5b7f4e487b7100000000000000000000000000000000000000000000000000000000600052601260045260246000fd5b7f4e487b7100000000000000000000000000000000000000000000000000000000600052602260045260246000fd5b7f4e487b7100000000000000000000000000000000000000000000000000000000600052604160045260246000fd5b6000601f19601f8301169050919050565b613ac081613888565b8114613acb57600080fd5b50565b613ad78161389a565b8114613ae257600080fd5b50565b613aee816138a6565b8114613af957600080fd5b50565b613b05816138f2565b8114613b1057600080fd5b5056fe416e204e465420772f20494420257320686173206265656e206d696e74656420746f2025734142434445464748494a4b4c4d4e4f505152535455565758595a6162636465666768696a6b6c6d6e6f707172737475767778797a303132333435363738392b2fa2646970667358221220dc4e31d77f8de1c87c2b11ffdeece00fa5ae08b3fb5b21f0c4db8e6f1462015e64736f6c634300080000333c73766720786d6c6e733d27687474703a2f2f7777772e77332e6f72672f323030302f73766727207072657365727665417370656374526174696f3d27784d696e594d696e206d656574272076696577426f783d273020302033353020333530273e3c7374796c653e2e62617365207b2066696c6c3a2077686974653b20666f6e742d66616d696c793a2073657269663b20666f6e742d73697a653a20313870783b207d3c2f7374796c653e3c726563742077696474683d273130302527206865696768743d2731303025272066696c6c3d27272f3e3c7465787420783d273530252720793d273530252720636c6173733d27626173652720646f6d696e616e742d626173656c696e653d276d6964646c652720746578742d616e63686f723d276d6964646c65273e",
  "linkReferences": {},
  "deployedLinkReferences": {}
}