{
  "_format": "hh-sol-artifact-1",
  "contractName": "MyEpicNFT",
  "sourceName": "contracts/MyEpicNFT.sol",
  "abi": [
    {
      "inputs": [],
      "stateMutability": "nonpayable",
      "type": "constructor"
    },
    {
      "anonymous": false,
      "inputs": [
        {
          "indexed": true,
          "internalType": "address",
          "name": "owner",
          "type": "address"
        },
        {
          "indexed": true,
          "internalType": "address",
          "name": "approved",
          "type": "address"
        },
        {
          "indexed": true,
          "internalType": "uint256",
          "name": "tokenId",
          "type": "uint256"
        }
      ],
      "name": "Approval",
      "type": "event"
    },
    {
      "anonymous": false,
      "inputs": [
        {
          "indexed": true,
          "internalType": "address",
          "name": "owner",
          "type": "address"
        },
        {
          "indexed": true,
          "internalType": "address",
          "name": "operator",
          "type": "address"
        },
        {
          "indexed": false,
          "internalType": "bool",
          "name": "approved",
          "type": "bool"
        }
      ],
      "name": "ApprovalForAll",
      "type": "event"
    },
    {
      "anonymous": false,
      "inputs": [
        {
          "indexed": false,
          "internalType": "address",
          "name": "sender",
          "type": "address"
        },
        {
          "indexed": false,
          "internalType": "uint256",
          "name": "tokenId",
          "type": "uint256"
        }
      ],
      "name": "NewEpicNFTMinted",
      "type": "event"
    },
    {
      "anonymous": false,
      "inputs": [
        {
          "indexed": true,
          "internalType": "address",
          "name": "from",
          "type": "address"
        },
        {
          "indexed": true,
          "internalType": "address",
          "name": "to",
          "type": "address"
        },
        {
          "indexed": true,
          "internalType": "uint256",
          "name": "tokenId",
          "type": "uint256"
        }
      ],
      "name": "Transfer",
      "type": "event"
    },
    {
      "inputs": [],
      "name": "_tokenTotal",
      "outputs": [
        {
          "internalType": "uint256",
          "name": "_value",
          "type": "uint256"
        }
      ],
      "stateMutability": "view",
      "type": "function"
    },
    {
      "inputs": [
        {
          "internalType": "address",
          "name": "to",
          "type": "address"
        },
        {
          "internalType": "uint256",
          "name": "tokenId",
          "type": "uint256"
        }
      ],
      "name": "approve",
      "outputs": [],
      "stateMutability": "nonpayable",
      "type": "function"
    },
    {
      "inputs": [
        {
          "internalType": "address",
          "name": "owner",
          "type": "address"
        }
      ],
      "name": "balanceOf",
      "outputs": [
        {
          "internalType": "uint256",
          "name": "",
          "type": "uint256"
        }
      ],
      "stateMutability": "view",
      "type": "function"
    },
    {
      "inputs": [
        {
          "internalType": "uint256",
          "name": "tokenId",
          "type": "uint256"
        }
      ],
      "name": "getApproved",
      "outputs": [
        {
          "internalType": "address",
          "name": "",
          "type": "address"
        }
      ],
      "stateMutability": "view",
      "type": "function"
    },
    {
      "inputs": [],
      "name": "getTotalNFTsMintedSoFar",
      "outputs": [
        {
          "internalType": "uint256",
          "name": "",
          "type": "uint256"
        }
      ],
      "stateMutability": "view",
      "type": "function"
    },
    {
      "inputs": [
        {
          "internalType": "address",
          "name": "owner",
          "type": "address"
        },
        {
          "internalType": "address",
          "name": "operator",
          "type": "address"
        }
      ],
      "name": "isApprovedForAll",
      "outputs": [
        {
          "internalType": "bool",
          "name": "",
          "type": "bool"
        }
      ],
      "stateMutability": "view",
      "type": "function"
    },
    {
      "inputs": [],
      "name": "makeAnEpicNFT",
      "outputs": [],
      "stateMutability": "nonpayable",
      "type": "function"
    },
    {
      "inputs": [],
      "name": "name",
      "outputs": [
        {
          "internalType": "string",
          "name": "",
          "type": "string"
        }
      ],
      "stateMutability": "view",
      "type": "function"
    },
    {
      "inputs": [
        {
          "internalType": "uint256",
          "name": "tokenId",
          "type": "uint256"
        }
      ],
      "name": "ownerOf",
      "outputs": [
        {
          "internalType": "address",
          "name": "",
          "type": "address"
        }
      ],
      "stateMutability": "view",
      "type": "function"
    },
    {
      "inputs": [
        {
          "internalType": "uint256",
          "name": "tokenId",
          "type": "uint256"
        }
      ],
      "name": "pickRandomColor",
      "outputs": [
        {
          "internalType": "string",
          "name": "",
          "type": "string"
        }
      ],
      "stateMutability": "view",
      "type": "function"
    },
    {
      "inputs": [
        {
          "internalType": "uint256",
          "name": "tokenId",
          "type": "uint256"
        }
      ],
      "name": "pickRandomFirstWord",
      "outputs": [
        {
          "internalType": "string",
          "name": "",
          "type": "string"
        }
      ],
      "stateMutability": "view",
      "type": "function"
    },
    {
      "inputs": [
        {
          "internalType": "uint256",
          "name": "tokenId",
          "type": "uint256"
        }
      ],
      "name": "pickRandomSecondWord",
      "outputs": [
        {
          "internalType": "string",
          "name": "",
          "type": "string"
        }
      ],
      "stateMutability": "view",
      "type": "function"
    },
    {
      "inputs": [
        {
          "internalType": "uint256",
          "name": "tokenId",
          "type": "uint256"
        }
      ],
      "name": "pickRandomThirdWord",
      "outputs": [
        {
          "internalType": "string",
          "name": "",
          "type": "string"
        }
      ],
      "stateMutability": "view",
      "type": "function"
    },
    {
      "inputs": [
        {
          "internalType": "address",
          "name": "from",
          "type": "address"
        },
        {
          "internalType": "address",
          "name": "to",
          "type": "address"
        },
        {
          "internalType": "uint256",
          "name": "tokenId",
          "type": "uint256"
        }
      ],
      "name": "safeTransferFrom",
      "outputs": [],
      "stateMutability": "nonpayable",
      "type": "function"
    },
    {
      "inputs": [
        {
          "internalType": "address",
          "name": "from",
          "type": "address"
        },
        {
          "internalType": "address",
          "name": "to",
          "type": "address"
        },
        {
          "internalType": "uint256",
          "name": "tokenId",
          "type": "uint256"
        },
        {
          "internalType": "bytes",
          "name": "_data",
          "type": "bytes"
        }
      ],
      "name": "safeTransferFrom",
      "outputs": [],
      "stateMutability": "nonpayable",
      "type": "function"
    },
    {
      "inputs": [
        {
          "internalType": "address",
          "name": "operator",
          "type": "address"
        },
        {
          "internalType": "bool",
          "name": "approved",
          "type": "bool"
        }
      ],
      "name": "setApprovalForAll",
      "outputs": [],
      "stateMutability": "nonpayable",
      "type": "function"
    },
    {
      "inputs": [
        {
          "internalType": "bytes4",
          "name": "interfaceId",
          "type": "bytes4"
        }
      ],
      "name": "supportsInterface",
      "outputs": [
        {
          "internalType": "bool",
          "name": "",
          "type": "bool"
        }
      ],
      "stateMutability": "view",
      "type": "function"
    },
    {
      "inputs": [],
      "name": "symbol",
      "outputs": [
        {
          "internalType": "string",
          "name": "",
          "type": "string"
        }
      ],
      "stateMutability": "view",
      "type": "function"
    },
    {
      "inputs": [
        {
          "internalType": "uint256",
          "name": "tokenId",
          "type": "uint256"
        }
      ],
      "name": "tokenURI",
      "outputs": [
        {
          "internalType": "string",
          "name": "",
          "type": "string"
        }
      ],
      "stateMutability": "view",
      "type": "function"
    },
    {
      "inputs": [
        {
          "internalType": "address",
          "name": "from",
          "type": "address"
        },
        {
          "internalType": "address",
          "name": "to",
          "type": "address"
        },
        {
          "internalType": "uint256",
          "name": "tokenId",
          "type": "uint256"
        }
      ],
      "name": "transferFrom",
      "outputs": [],
      "stateMutability": "nonpayable",
      "type": "function"
    }
  ],
  "bytecode": "0x608060405260405180610100016040528060d8815260200162004e8a60d89139600990805190602001906200003692919062000f19565b5060405180608001604052806056815260200162004f6260569139600a90805190602001906200006892919062000f19565b506040518061020001604052806040518060400160405280600b81526020017f4272696c6c69616e746c7900000000000000000000000000000000000000000081525081526020016040518060400160405280600a81526020017f5374756e6e696e676c790000000000000000000000000000000000000000000081525081526020016040518060400160405280600981526020017f426c617a696e676c79000000000000000000000000000000000000000000000081525081526020016040518060400160405280600981526020017f52616469616e746c79000000000000000000000000000000000000000000000081525081526020016040518060400160405280600981526020017f44617a7a696e676c79000000000000000000000000000000000000000000000081525081526020016040518060400160405280600a81526020017f496e6372656469626c790000000000000000000000000000000000000000000081525081526020016040518060400160405280600981526020017f466162756f75736c79000000000000000000000000000000000000000000000081525081526020016040518060400160405280600d81526020017f4173746f6e697368696e676c790000000000000000000000000000000000000081525081526020016040518060400160405280600981526020017f4f6276696f75736c79000000000000000000000000000000000000000000000081525081526020016040518060400160405280600a81526020017f52656d61726b61626c790000000000000000000000000000000000000000000081525081526020016040518060400160405280600a81526020017f556e636f6d6d6f6e6c790000000000000000000000000000000000000000000081525081526020016040518060400160405280600981526020017f416d617a696e676c79000000000000000000000000000000000000000000000081525081526020016040518060400160405280600c81526020017f506172746963756c61726c79000000000000000000000000000000000000000081525081526020016040518060400160405280600f81526020017f45787472616f7264696e6172696c79000000000000000000000000000000000081525081526020016040518060400160405280600b81526020017f576f6e64657266756c6c7900000000000000000000000000000000000000000081525081526020016040518060400160405280600a81526020017f506f77657266756c6c7900000000000000000000000000000000000000000000815250815250600b9060106200043592919062000faa565b506040518061020001604052806040518060400160405280600b81526020017f4f75747374616e64696e6700000000000000000000000000000000000000000081525081526020016040518060400160405280600a81526020017f496d70726573736976650000000000000000000000000000000000000000000081525081526020016040518060400160405280600581526020017f50726f756400000000000000000000000000000000000000000000000000000081525081526020016040518060400160405280600b81526020017f4368616c6c656e67696e6700000000000000000000000000000000000000000081525081526020016040518060400160405280600881526020017f4578636974696e6700000000000000000000000000000000000000000000000081525081526020016040518060400160405280600b81526020017f496d6167696e617469766500000000000000000000000000000000000000000081525081526020016040518060400160405280600b81526020017f4578747261766167616e7400000000000000000000000000000000000000000081525081526020016040518060400160405280600981526020017f46616e746173746963000000000000000000000000000000000000000000000081525081526020016040518060400160405280600981526020017f5768696d736963616c000000000000000000000000000000000000000000000081525081526020016040518060400160405280600881526020017f46616e636966756c00000000000000000000000000000000000000000000000081525081526020016040518060400160405280600881526020017f4f726967696e616c00000000000000000000000000000000000000000000000081525081526020016040518060400160405280600781526020017f4f6666626561740000000000000000000000000000000000000000000000000081525081526020016040518060400160405280600981526020017f566973696f6e617279000000000000000000000000000000000000000000000081525081526020016040518060400160405280600c81526020017f456e74657270726973696e67000000000000000000000000000000000000000081525081526020016040518060400160405280600a81526020017f50726f647563746976650000000000000000000000000000000000000000000081525081526020016040518060400160405280600981526020017f416d626974696f75730000000000000000000000000000000000000000000000815250815250600c9060106200080292919062000faa565b50604051806101e001604052806040518060400160405280600b81526020017f506572666f726d616e636500000000000000000000000000000000000000000081525081526020016040518060400160405280600381526020017f4a6f62000000000000000000000000000000000000000000000000000000000081525081526020016040518060400160405280600481526020017f466561740000000000000000000000000000000000000000000000000000000081525081526020016040518060400160405280600781526020017f50726f6a6563740000000000000000000000000000000000000000000000000081525081526020016040518060400160405280600b81526020017f556e64657274616b696e6700000000000000000000000000000000000000000081525081526020016040518060400160405280600781526020017f50726f647563740000000000000000000000000000000000000000000000000081525081526020016040518060400160405280600b81526020017f416368696576656d656e7400000000000000000000000000000000000000000081525081526020016040518060400160405280600381526020017f416374000000000000000000000000000000000000000000000000000000000081525081526020016040518060400160405280600e81526020017f4163636f6d706c6973686d656e7400000000000000000000000000000000000081525081526020016040518060400160405280600a81526020017f41747461696e6d656e740000000000000000000000000000000000000000000081525081526020016040518060400160405280600881526020017f4372656174696f6e00000000000000000000000000000000000000000000000081525081526020016040518060400160405280600481526020017f446565640000000000000000000000000000000000000000000000000000000081525081526020016040518060400160405280600681526020017f4566666f7274000000000000000000000000000000000000000000000000000081525081526020016040518060400160405280600781526020017f537563636573730000000000000000000000000000000000000000000000000081525081526020016040518060400160405280600781526020017f547269756d706800000000000000000000000000000000000000000000000000815250815250600d90600f62000b9492919062001011565b506040518060e001604052806040518060400160405280600381526020017f726564000000000000000000000000000000000000000000000000000000000081525081526020016040518060400160405280600781526020017f233038633241380000000000000000000000000000000000000000000000000081525081526020016040518060400160405280600581526020017f626c61636b00000000000000000000000000000000000000000000000000000081525081526020016040518060400160405280601681526020017f68736c61283231312c203936252c203632252c2031290000000000000000000081525081526020016040518060400160405280600681526020017f79656c6c6f77000000000000000000000000000000000000000000000000000081525081526020016040518060400160405280600481526020017f626c75650000000000000000000000000000000000000000000000000000000081525081526020016040518060400160405280600681526020017f707572706c650000000000000000000000000000000000000000000000000000815250815250600e90600762000d4d92919062001078565b5034801562000d5b57600080fd5b506040518060400160405280600981526020017f5371756172654e465400000000000000000000000000000000000000000000008152506040518060400160405280600681526020017f5351554152450000000000000000000000000000000000000000000000000000815250816000908051906020019062000de092919062000f19565b50806001908051906020019062000df992919062000f19565b50505062000e476040518060400160405280601781526020017f54686973206973206d79204e465420636f6e747261637400000000000000000081525062000e4d60201b620014371760201c565b62001299565b62000eed8160405160240162000e649190620011ad565b6040516020818303038152906040527f41304fac000000000000000000000000000000000000000000000000000000007bffffffffffffffffffffffffffffffffffffffffffffffffffffffff19166020820180517bffffffffffffffffffffffffffffffffffffffffffffffffffffffff838183161783525050505062000ef060201b60201c565b50565b60008151905060006a636f6e736f6c652e6c6f679050602083016000808483855afa5050505050565b82805462000f279062001223565b90600052602060002090601f01602090048101928262000f4b576000855562000f97565b82601f1062000f6657805160ff191683800117855562000f97565b8280016001018555821562000f97579182015b8281111562000f9657825182559160200191906001019062000f79565b5b50905062000fa69190620010df565b5090565b82805482825590600052602060002090810192821562000ffe579160200282015b8281111562000ffd57825182908051906020019062000fec92919062000f19565b509160200191906001019062000fcb565b5b5090506200100d9190620010fe565b5090565b82805482825590600052602060002090810192821562001065579160200282015b82811115620010645782518290805190602001906200105392919062000f19565b509160200191906001019062001032565b5b509050620010749190620010fe565b5090565b828054828255906000526020600020908101928215620010cc579160200282015b82811115620010cb578251829080519060200190620010ba92919062000f19565b509160200191906001019062001099565b5b509050620010db9190620010fe565b5090565b5b80821115620010fa576000816000905550600101620010e0565b5090565b5b8082111562001122576000818162001118919062001126565b50600101620010ff565b5090565b508054620011349062001223565b6000825580601f1062001148575062001169565b601f016020900490600052602060002090810190620011689190620010df565b5b50565b60006200117982620011d1565b620011858185620011dc565b935062001197818560208601620011ed565b620011a28162001288565b840191505092915050565b60006020820190508181036000830152620011c981846200116c565b905092915050565b600081519050919050565b600082825260208201905092915050565b60005b838110156200120d578082015181840152602081019050620011f0565b838111156200121d576000848401525b50505050565b600060028204905060018216806200123c57607f821691505b6020821081141562001253576200125262001259565b5b50919050565b7f4e487b7100000000000000000000000000000000000000000000000000000000600052602260045260246000fd5b6000601f19601f8301169050919050565b613be180620012a96000396000f3fe608060405234801561001057600080fd5b506004361061012c5760003560e01c806370a08231116100ad578063c575757a11610071578063c575757a14610367578063c87b56dd14610397578063dd37b708146103c7578063de9d132f146103e5578063e985e9c5146103ef5761012c565b806370a08231146102b157806395d89b41146102e1578063a22cb465146102ff578063b187301f1461031b578063b88d4fde1461034b5761012c565b806323b872dd116100f457806323b872dd146101e95780632de38d681461020557806342842e0e14610235578063514dc8c6146102515780636352211e146102815761012c565b806301ffc9a714610131578063060475901461016157806306fdde031461017f578063081812fc1461019d578063095ea7b3146101cd575b600080fd5b61014b60048036038101906101469190612763565b61041f565b6040516101589190613457565b60405180910390f35b610169610501565b60405161017691906136d2565b60405180910390f35b610187610512565b6040516101949190613472565b60405180910390f35b6101b760048036038101906101b291906127b5565b6105a4565b6040516101c491906133c7565b60405180910390f35b6101e760048036038101906101e29190612727565b610629565b005b61020360048036038101906101fe9190612621565b610741565b005b61021f600480360381019061021a91906127b5565b6107a1565b60405161022c9190613472565b60405180910390f35b61024f600480360381019061024a9190612621565b6108bf565b005b61026b600480360381019061026691906127b5565b6108df565b6040516102789190613472565b60405180910390f35b61029b600480360381019061029691906127b5565b6109fd565b6040516102a891906133c7565b60405180910390f35b6102cb60048036038101906102c691906125bc565b610aaf565b6040516102d891906136d2565b60405180910390f35b6102e9610b67565b6040516102f69190613472565b60405180910390f35b610319600480360381019061031491906126eb565b610bf9565b005b610335600480360381019061033091906127b5565b610d7a565b6040516103429190613472565b60405180910390f35b61036560048036038101906103609190612670565b610e98565b005b610381600480360381019061037c91906127b5565b610efa565b60405161038e9190613472565b60405180910390f35b6103b160048036038101906103ac91906127b5565b611018565b6040516103be9190613472565b60405180910390f35b6103cf61116a565b6040516103dc91906136d2565b60405180910390f35b6103ed611176565b005b610409600480360381019061040491906125e5565b6113a3565b6040516104169190613457565b60405180910390f35b60007f80ac58cd000000000000000000000000000000000000000000000000000000007bffffffffffffffffffffffffffffffffffffffffffffffffffffffff1916827bffffffffffffffffffffffffffffffffffffffffffffffffffffffff191614806104ea57507f5b5e139f000000000000000000000000000000000000000000000000000000007bffffffffffffffffffffffffffffffffffffffffffffffffffffffff1916827bffffffffffffffffffffffffffffffffffffffffffffffffffffffff1916145b806104fa57506104f9826114d0565b5b9050919050565b600061050d600861153a565b905090565b60606000805461052190613971565b80601f016020809104026020016040519081016040528092919081815260200182805461054d90613971565b801561059a5780601f1061056f5761010080835404028352916020019161059a565b820191906000526020600020905b81548152906001019060200180831161057d57829003601f168201915b5050505050905090565b60006105af82611548565b6105ee576040517f08c379a00000000000000000000000000000000000000000000000000000000081526004016105e590613632565b60405180910390fd5b6004600083815260200190815260200160002060009054906101000a900473ffffffffffffffffffffffffffffffffffffffff169050919050565b6000610634826109fd565b90508073ffffffffffffffffffffffffffffffffffffffff168373ffffffffffffffffffffffffffffffffffffffff1614156106a5576040517f08c379a000000000000000000000000000000000000000000000000000000000815260040161069c90613692565b60405180910390fd5b8073ffffffffffffffffffffffffffffffffffffffff166106c46115b4565b73ffffffffffffffffffffffffffffffffffffffff1614806106f357506106f2816106ed6115b4565b6113a3565b5b610732576040517f08c379a000000000000000000000000000000000000000000000000000000000815260040161072990613572565b60405180910390fd5b61073c83836115bc565b505050565b61075261074c6115b4565b82611675565b610791576040517f08c379a0000000000000000000000000000000000000000000000000000000008152600401610788906136b2565b60405180910390fd5b61079c838383611753565b505050565b606060006107d56107b1846119af565b6040516020016107c19190613361565b604051602081830303815290604052611b5c565b9050600b80549050816107e891906139ec565b9050600b8181548110610824577f4e487b7100000000000000000000000000000000000000000000000000000000600052603260045260246000fd5b90600052602060002001805461083990613971565b80601f016020809104026020016040519081016040528092919081815260200182805461086590613971565b80156108b25780601f10610887576101008083540402835291602001916108b2565b820191906000526020600020905b81548152906001019060200180831161089557829003601f168201915b5050505050915050919050565b6108da83838360405180602001604052806000815250610e98565b505050565b606060006109136108ef846119af565b6040516020016108ff91906133a5565b604051602081830303815290604052611b5c565b9050600e805490508161092691906139ec565b9050600e8181548110610962577f4e487b7100000000000000000000000000000000000000000000000000000000600052603260045260246000fd5b90600052602060002001805461097790613971565b80601f01602080910402602001604051908101604052809291908181526020018280546109a390613971565b80156109f05780601f106109c5576101008083540402835291602001916109f0565b820191906000526020600020905b8154815290600101906020018083116109d357829003601f168201915b5050505050915050919050565b6000806002600084815260200190815260200160002060009054906101000a900473ffffffffffffffffffffffffffffffffffffffff169050600073ffffffffffffffffffffffffffffffffffffffff168173ffffffffffffffffffffffffffffffffffffffff161415610aa6576040517f08c379a0000000000000000000000000000000000000000000000000000000008152600401610a9d906135b2565b60405180910390fd5b80915050919050565b60008073ffffffffffffffffffffffffffffffffffffffff168273ffffffffffffffffffffffffffffffffffffffff161415610b20576040517f08c379a0000000000000000000000000000000000000000000000000000000008152600401610b1790613592565b60405180910390fd5b600360008373ffffffffffffffffffffffffffffffffffffffff1673ffffffffffffffffffffffffffffffffffffffff168152602001908152602001600020549050919050565b606060018054610b7690613971565b80601f0160208091040260200160405190810160405280929190818152602001828054610ba290613971565b8015610bef5780601f10610bc457610100808354040283529160200191610bef565b820191906000526020600020905b815481529060010190602001808311610bd257829003601f168201915b5050505050905090565b610c016115b4565b73ffffffffffffffffffffffffffffffffffffffff168273ffffffffffffffffffffffffffffffffffffffff161415610c6f576040517f08c379a0000000000000000000000000000000000000000000000000000000008152600401610c6690613532565b60405180910390fd5b8060056000610c7c6115b4565b73ffffffffffffffffffffffffffffffffffffffff1673ffffffffffffffffffffffffffffffffffffffff16815260200190815260200160002060008473ffffffffffffffffffffffffffffffffffffffff1673ffffffffffffffffffffffffffffffffffffffff16815260200190815260200160002060006101000a81548160ff0219169083151502179055508173ffffffffffffffffffffffffffffffffffffffff16610d296115b4565b73ffffffffffffffffffffffffffffffffffffffff167f17307eab39ab6107e8899845ad3d59bd9653f200f220920489ca2b5937696c3183604051610d6e9190613457565b60405180910390a35050565b60606000610dae610d8a846119af565b604051602001610d9a91906132fa565b604051602081830303815290604052611b5c565b9050600c8054905081610dc191906139ec565b9050600c8181548110610dfd577f4e487b7100000000000000000000000000000000000000000000000000000000600052603260045260246000fd5b906000526020600020018054610e1290613971565b80601f0160208091040260200160405190810160405280929190818152602001828054610e3e90613971565b8015610e8b5780601f10610e6057610100808354040283529160200191610e8b565b820191906000526020600020905b815481529060010190602001808311610e6e57829003601f168201915b5050505050915050919050565b610ea9610ea36115b4565b83611675565b610ee8576040517f08c379a0000000000000000000000000000000000000000000000000000000008152600401610edf906136b2565b60405180910390fd5b610ef484848484611b8f565b50505050565b60606000610f2e610f0a846119af565b604051602001610f1a91906132d8565b604051602081830303815290604052611b5c565b9050600d8054905081610f4191906139ec565b9050600d8181548110610f7d577f4e487b7100000000000000000000000000000000000000000000000000000000600052603260045260246000fd5b906000526020600020018054610f9290613971565b80601f0160208091040260200160405190810160405280929190818152602001828054610fbe90613971565b801561100b5780601f10610fe05761010080835404028352916020019161100b565b820191906000526020600020905b815481529060010190602001808311610fee57829003601f168201915b5050505050915050919050565b606061102382611548565b611062576040517f08c379a000000000000000000000000000000000000000000000000000000000815260040161105990613612565b60405180910390fd5b600060066000848152602001908152602001600020805461108290613971565b80601f01602080910402602001604051908101604052809291908181526020018280546110ae90613971565b80156110fb5780601f106110d0576101008083540402835291602001916110fb565b820191906000526020600020905b8154815290600101906020018083116110de57829003601f168201915b50505050509050600061110c611beb565b9050600081511415611122578192505050611165565b60008251111561115757808260405160200161113f929190613224565b60405160208183030381529060405292505050611165565b61116084611c02565b925050505b919050565b60088060000154905081565b6032611182600761153a565b111561118d57600080fd5b6000611199600761153a565b905060006111a6826107a1565b905060006111b383610d7a565b905060006111c084610efa565b905060008383836040516020016111d993929190613248565b604051602081830303815290604052905060006111f5866108df565b90506000600982600a85604051602001611212949392919061328f565b604051602081830303815290604052905060006112578461123284611ca9565b60405160200161124392919061331c565b604051602081830303815290604052611ca9565b905060008160405160200161126c9190613383565b60405160208183030381529060405290506112bb6040518060400160405280601581526020017f0a2d2d2d2d2d2d2d2d2d2d2d2d2d2d2d2d2d2d2d2d0000000000000000000000815250611437565b6112c481611437565b6113026040518060400160405280601581526020017f2d2d2d2d2d2d2d2d2d2d2d2d2d2d2d2d2d2d2d2d0a0000000000000000000000815250611437565b61130c338a611e67565b6113168982611e85565b6113206007611ef9565b61132a6008611ef9565b61134d604051806060016040528060258152602001613b47602591398a33611f0f565b61135f61135a600861153a565b611fae565b7febb98688741ffa4c7589bf325de30cf7becb63de567842e1ccdb6cb949fdc82c338a60405161139092919061342e565b60405180910390a1505050505050505050565b6000600560008473ffffffffffffffffffffffffffffffffffffffff1673ffffffffffffffffffffffffffffffffffffffff16815260200190815260200160002060008373ffffffffffffffffffffffffffffffffffffffff1673ffffffffffffffffffffffffffffffffffffffff16815260200190815260200160002060009054906101000a900460ff16905092915050565b6114cd8160405160240161144b9190613472565b6040516020818303038152906040527f41304fac000000000000000000000000000000000000000000000000000000007bffffffffffffffffffffffffffffffffffffffffffffffffffffffff19166020820180517bffffffffffffffffffffffffffffffffffffffffffffffffffffffff8381831617835250505050612047565b50565b60007f01ffc9a7000000000000000000000000000000000000000000000000000000007bffffffffffffffffffffffffffffffffffffffffffffffffffffffff1916827bffffffffffffffffffffffffffffffffffffffffffffffffffffffff1916149050919050565b600081600001549050919050565b60008073ffffffffffffffffffffffffffffffffffffffff166002600084815260200190815260200160002060009054906101000a900473ffffffffffffffffffffffffffffffffffffffff1673ffffffffffffffffffffffffffffffffffffffff1614159050919050565b600033905090565b816004600083815260200190815260200160002060006101000a81548173ffffffffffffffffffffffffffffffffffffffff021916908373ffffffffffffffffffffffffffffffffffffffff160217905550808273ffffffffffffffffffffffffffffffffffffffff1661162f836109fd565b73ffffffffffffffffffffffffffffffffffffffff167f8c5be1e5ebec7d5bd14f71427d1e84f3dd0314c0f7b2291e5b200ac8c7c3b92560405160405180910390a45050565b600061168082611548565b6116bf576040517f08c379a00000000000000000000000000000000000000000000000000000000081526004016116b690613552565b60405180910390fd5b60006116ca836109fd565b90508073ffffffffffffffffffffffffffffffffffffffff168473ffffffffffffffffffffffffffffffffffffffff16148061173957508373ffffffffffffffffffffffffffffffffffffffff16611721846105a4565b73ffffffffffffffffffffffffffffffffffffffff16145b8061174a575061174981856113a3565b5b91505092915050565b8273ffffffffffffffffffffffffffffffffffffffff16611773826109fd565b73ffffffffffffffffffffffffffffffffffffffff16146117c9576040517f08c379a00000000000000000000000000000000000000000000000000000000081526004016117c090613652565b60405180910390fd5b600073ffffffffffffffffffffffffffffffffffffffff168273ffffffffffffffffffffffffffffffffffffffff161415611839576040517f08c379a000000000000000000000000000000000000000000000000000000000815260040161183090613512565b60405180910390fd5b611844838383612070565b61184f6000826115bc565b6001600360008573ffffffffffffffffffffffffffffffffffffffff1673ffffffffffffffffffffffffffffffffffffffff168152602001908152602001600020600082825461189f9190613887565b925050819055506001600360008473ffffffffffffffffffffffffffffffffffffffff1673ffffffffffffffffffffffffffffffffffffffff16815260200190815260200160002060008282546118f691906137a6565b92505081905550816002600083815260200190815260200160002060006101000a81548173ffffffffffffffffffffffffffffffffffffffff021916908373ffffffffffffffffffffffffffffffffffffffff160217905550808273ffffffffffffffffffffffffffffffffffffffff168473ffffffffffffffffffffffffffffffffffffffff167fddf252ad1be2c89b69c2b068fc378daa952ba7f163c4a11628f55a4df523b3ef60405160405180910390a4505050565b606060008214156119f7576040518060400160405280600181526020017f30000000000000000000000000000000000000000000000000000000000000008152509050611b57565b600082905060005b60008214611a29578080611a12906139a3565b915050600a82611a2291906137fc565b91506119ff565b60008167ffffffffffffffff811115611a6b577f4e487b7100000000000000000000000000000000000000000000000000000000600052604160045260246000fd5b6040519080825280601f01601f191660200182016040528015611a9d5781602001600182028036833780820191505090505b5090505b60008514611b5057600182611ab69190613887565b9150600a85611ac591906139ec565b6030611ad191906137a6565b60f81b818381518110611b0d577f4e487b7100000000000000000000000000000000000000000000000000000000600052603260045260246000fd5b60200101907effffffffffffffffffffffffffffffffffffffffffffffffffffffffffffff1916908160001a905350600a85611b4991906137fc565b9450611aa1565b8093505050505b919050565b600081604051602001611b6f919061320d565b6040516020818303038152906040528051906020012060001c9050919050565b611b9a848484611753565b611ba684848484612075565b611be5576040517f08c379a0000000000000000000000000000000000000000000000000000000008152600401611bdc906134d2565b60405180910390fd5b50505050565b606060405180602001604052806000815250905090565b6060611c0d82611548565b611c4c576040517f08c379a0000000000000000000000000000000000000000000000000000000008152600401611c4390613672565b60405180910390fd5b6000611c56611beb565b90506000815111611c765760405180602001604052806000815250611ca1565b80611c80846119af565b604051602001611c91929190613224565b6040516020818303038152906040525b915050919050565b60606000825190506000811415611cd25760405180602001604052806000815250915050611e62565b60006003600283611ce391906137a6565b611ced91906137fc565b6004611cf9919061382d565b90506000602082611d0a91906137a6565b67ffffffffffffffff811115611d49577f4e487b7100000000000000000000000000000000000000000000000000000000600052604160045260246000fd5b6040519080825280601f01601f191660200182016040528015611d7b5781602001600182028036833780820191505090505b5090506000604051806060016040528060408152602001613b6c604091399050600181016020830160005b86811015611e1f5760038101905062ffffff818a015116603f8160121c168401518060081b905060ff603f83600c1c1686015116810190508060081b905060ff603f8360061c1686015116810190508060081b905060ff603f831686015116810190508060e01b90508084526004840193505050611da6565b506003860660018114611e395760028114611e4957611e54565b613d3d60f01b6002830352611e54565b603d60f81b60018303525b508484525050819450505050505b919050565b611e8182826040518060200160405280600081525061220c565b5050565b611e8e82611548565b611ecd576040517f08c379a0000000000000000000000000000000000000000000000000000000008152600401611ec4906135d2565b60405180910390fd5b80600660008481526020019081526020016000209080519060200190611ef4929190612448565b505050565b6001816000016000828254019250508190555050565b611fa9838383604051602401611f2793929190613494565b6040516020818303038152906040527fe3849f79000000000000000000000000000000000000000000000000000000007bffffffffffffffffffffffffffffffffffffffffffffffffffffffff19166020820180517bffffffffffffffffffffffffffffffffffffffffffffffffffffffff8381831617835250505050612047565b505050565b61204481604051602401611fc291906136d2565b6040516020818303038152906040527ff5b1bba9000000000000000000000000000000000000000000000000000000007bffffffffffffffffffffffffffffffffffffffffffffffffffffffff19166020820180517bffffffffffffffffffffffffffffffffffffffffffffffffffffffff8381831617835250505050612047565b50565b60008151905060006a636f6e736f6c652e6c6f679050602083016000808483855afa5050505050565b505050565b60006120968473ffffffffffffffffffffffffffffffffffffffff16612267565b156121ff578373ffffffffffffffffffffffffffffffffffffffff1663150b7a026120bf6115b4565b8786866040518563ffffffff1660e01b81526004016120e194939291906133e2565b602060405180830381600087803b1580156120fb57600080fd5b505af192505050801561212c57506040513d601f19601f82011682018060405250810190612129919061278c565b60015b6121af573d806000811461215c576040519150601f19603f3d011682016040523d82523d6000602084013e612161565b606091505b506000815114156121a7576040517f08c379a000000000000000000000000000000000000000000000000000000000815260040161219e906134d2565b60405180910390fd5b805181602001fd5b63150b7a0260e01b7bffffffffffffffffffffffffffffffffffffffffffffffffffffffff1916817bffffffffffffffffffffffffffffffffffffffffffffffffffffffff191614915050612204565b600190505b949350505050565b612216838361227a565b6122236000848484612075565b612262576040517f08c379a0000000000000000000000000000000000000000000000000000000008152600401612259906134d2565b60405180910390fd5b505050565b600080823b905060008111915050919050565b600073ffffffffffffffffffffffffffffffffffffffff168273ffffffffffffffffffffffffffffffffffffffff1614156122ea576040517f08c379a00000000000000000000000000000000000000000000000000000000081526004016122e1906135f2565b60405180910390fd5b6122f381611548565b15612333576040517f08c379a000000000000000000000000000000000000000000000000000000000815260040161232a906134f2565b60405180910390fd5b61233f60008383612070565b6001600360008473ffffffffffffffffffffffffffffffffffffffff1673ffffffffffffffffffffffffffffffffffffffff168152602001908152602001600020600082825461238f91906137a6565b92505081905550816002600083815260200190815260200160002060006101000a81548173ffffffffffffffffffffffffffffffffffffffff021916908373ffffffffffffffffffffffffffffffffffffffff160217905550808273ffffffffffffffffffffffffffffffffffffffff16600073ffffffffffffffffffffffffffffffffffffffff167fddf252ad1be2c89b69c2b068fc378daa952ba7f163c4a11628f55a4df523b3ef60405160405180910390a45050565b82805461245490613971565b90600052602060002090601f01602090048101928261247657600085556124bd565b82601f1061248f57805160ff19168380011785556124bd565b828001600101855582156124bd579182015b828111156124bc5782518255916020019190600101906124a1565b5b5090506124ca91906124ce565b5090565b5b808211156124e75760008160009055506001016124cf565b5090565b60006124fe6124f98461371e565b6136ed565b90508281526020810184848401111561251657600080fd5b61252184828561392f565b509392505050565b60008135905061253881613aea565b92915050565b60008135905061254d81613b01565b92915050565b60008135905061256281613b18565b92915050565b60008151905061257781613b18565b92915050565b600082601f83011261258e57600080fd5b813561259e8482602086016124eb565b91505092915050565b6000813590506125b681613b2f565b92915050565b6000602082840312156125ce57600080fd5b60006125dc84828501612529565b91505092915050565b600080604083850312156125f857600080fd5b600061260685828601612529565b925050602061261785828601612529565b9150509250929050565b60008060006060848603121561263657600080fd5b600061264486828701612529565b935050602061265586828701612529565b9250506040612666868287016125a7565b9150509250925092565b6000806000806080858703121561268657600080fd5b600061269487828801612529565b94505060206126a587828801612529565b93505060406126b6878288016125a7565b925050606085013567ffffffffffffffff8111156126d357600080fd5b6126df8782880161257d565b91505092959194509250565b600080604083850312156126fe57600080fd5b600061270c85828601612529565b925050602061271d8582860161253e565b9150509250929050565b6000806040838503121561273a57600080fd5b600061274885828601612529565b9250506020612759858286016125a7565b9150509250929050565b60006020828403121561277557600080fd5b600061278384828501612553565b91505092915050565b60006020828403121561279e57600080fd5b60006127ac84828501612568565b91505092915050565b6000602082840312156127c757600080fd5b60006127d5848285016125a7565b91505092915050565b6127e7816138bb565b82525050565b6127f6816138cd565b82525050565b600061280782613763565b6128118185613779565b935061282181856020860161393e565b61282a81613ad9565b840191505092915050565b60006128408261376e565b61284a818561378a565b935061285a81856020860161393e565b61286381613ad9565b840191505092915050565b60006128798261376e565b612883818561379b565b935061289381856020860161393e565b80840191505092915050565b600081546128ac81613971565b6128b6818661379b565b945060018216600081146128d157600181146128e257612915565b60ff19831686528186019350612915565b6128eb8561374e565b60005b8381101561290d578154818901526001820191506020810190506128ee565b838801955050505b50505092915050565b600061292b60328361378a565b91507f4552433732313a207472616e7366657220746f206e6f6e20455243373231526560008301527f63656976657220696d706c656d656e74657200000000000000000000000000006020830152604082019050919050565b6000612991601c8361378a565b91507f4552433732313a20746f6b656e20616c7265616479206d696e746564000000006000830152602082019050919050565b60006129d1600a8361379b565b91507f54484952445f574f5244000000000000000000000000000000000000000000006000830152600a82019050919050565b6000612a1160248361378a565b91507f4552433732313a207472616e7366657220746f20746865207a65726f2061646460008301527f72657373000000000000000000000000000000000000000000000000000000006020830152604082019050919050565b6000612a7760198361378a565b91507f4552433732313a20617070726f766520746f2063616c6c6572000000000000006000830152602082019050919050565b6000612ab7600b8361379b565b91507f5345434f4e445f574f52440000000000000000000000000000000000000000006000830152600b82019050919050565b6000612af7602c8361378a565b91507f4552433732313a206f70657261746f7220717565727920666f72206e6f6e657860008301527f697374656e7420746f6b656e00000000000000000000000000000000000000006020830152604082019050919050565b6000612b5d600d8361379b565b91507f3c2f746578743e3c2f7376673e000000000000000000000000000000000000006000830152600d82019050919050565b6000612b9d60018361379b565b91507f20000000000000000000000000000000000000000000000000000000000000006000830152600182019050919050565b6000612bdd60388361378a565b91507f4552433732313a20617070726f76652063616c6c6572206973206e6f74206f7760008301527f6e6572206e6f7220617070726f76656420666f7220616c6c00000000000000006020830152604082019050919050565b6000612c43602a8361378a565b91507f4552433732313a2062616c616e636520717565727920666f7220746865207a6560008301527f726f2061646472657373000000000000000000000000000000000000000000006020830152604082019050919050565b6000612ca960298361378a565b91507f4552433732313a206f776e657220717565727920666f72206e6f6e657869737460008301527f656e7420746f6b656e00000000000000000000000000000000000000000000006020830152604082019050919050565b6000612d0f602e8361378a565b91507f45524337323155524953746f726167653a2055524920736574206f66206e6f6e60008301527f6578697374656e7420746f6b656e0000000000000000000000000000000000006020830152604082019050919050565b6000612d7560028361379b565b91507f227d0000000000000000000000000000000000000000000000000000000000006000830152600282019050919050565b6000612db560208361378a565b91507f4552433732313a206d696e7420746f20746865207a65726f20616464726573736000830152602082019050919050565b6000612df560318361378a565b91507f45524337323155524953746f726167653a2055524920717565727920666f722060008301527f6e6f6e6578697374656e7420746f6b656e0000000000000000000000000000006020830152604082019050919050565b6000612e5b602c8361378a565b91507f4552433732313a20617070726f76656420717565727920666f72206e6f6e657860008301527f697374656e7420746f6b656e00000000000000000000000000000000000000006020830152604082019050919050565b6000612ec160298361378a565b91507f4552433732313a207472616e73666572206f6620746f6b656e2074686174206960008301527f73206e6f74206f776e00000000000000000000000000000000000000000000006020830152604082019050919050565b6000612f27602f8361378a565b91507f4552433732314d657461646174613a2055524920717565727920666f72206e6f60008301527f6e6578697374656e7420746f6b656e00000000000000000000000000000000006020830152604082019050919050565b6000612f8d600a8361379b565b91507f7b226e616d65223a2022000000000000000000000000000000000000000000006000830152600a82019050919050565b6000612fcd60218361378a565b91507f4552433732313a20617070726f76616c20746f2063757272656e74206f776e6560008301527f72000000000000000000000000000000000000000000000000000000000000006020830152604082019050919050565b6000613033600a8361379b565b91507f46495253545f574f5244000000000000000000000000000000000000000000006000830152600a82019050919050565b6000613073601d8361379b565b91507f646174613a6170706c69636174696f6e2f6a736f6e3b6261736536342c0000006000830152601d82019050919050565b60006130b360318361378a565b91507f4552433732313a207472616e736665722063616c6c6572206973206e6f74206f60008301527f776e6572206e6f7220617070726f7665640000000000000000000000000000006020830152604082019050919050565b600061311960058361379b565b91507f434f4c4f520000000000000000000000000000000000000000000000000000006000830152600582019050919050565b600061315960658361379b565b91507f222c20226465736372697074696f6e223a20224120686967686c7920656e636f60008301527f75726167696e6720636f6c6c656374696f6e206f6620737175617265732e222c60208301527f2022696d616765223a2022646174613a696d6167652f7376672b786d6c3b626160408301527f736536342c0000000000000000000000000000000000000000000000000000006060830152606582019050919050565b61320781613925565b82525050565b6000613219828461286e565b915081905092915050565b6000613230828561286e565b915061323c828461286e565b91508190509392505050565b6000613254828661286e565b915061325f82612b90565b915061326b828561286e565b915061327682612b90565b9150613282828461286e565b9150819050949350505050565b600061329b828761289f565b91506132a7828661286e565b91506132b3828561289f565b91506132bf828461286e565b91506132ca82612b50565b915081905095945050505050565b60006132e3826129c4565b91506132ef828461286e565b915081905092915050565b600061330582612aaa565b9150613311828461286e565b915081905092915050565b600061332782612f80565b9150613333828561286e565b915061333e8261314c565b915061334a828461286e565b915061335582612d68565b91508190509392505050565b600061336c82613026565b9150613378828461286e565b915081905092915050565b600061338e82613066565b915061339a828461286e565b915081905092915050565b60006133b08261310c565b91506133bc828461286e565b915081905092915050565b60006020820190506133dc60008301846127de565b92915050565b60006080820190506133f760008301876127de565b61340460208301866127de565b61341160408301856131fe565b818103606083015261342381846127fc565b905095945050505050565b600060408201905061344360008301856127de565b61345060208301846131fe565b9392505050565b600060208201905061346c60008301846127ed565b92915050565b6000602082019050818103600083015261348c8184612835565b905092915050565b600060608201905081810360008301526134ae8186612835565b90506134bd60208301856131fe565b6134ca60408301846127de565b949350505050565b600060208201905081810360008301526134eb8161291e565b9050919050565b6000602082019050818103600083015261350b81612984565b9050919050565b6000602082019050818103600083015261352b81612a04565b9050919050565b6000602082019050818103600083015261354b81612a6a565b9050919050565b6000602082019050818103600083015261356b81612aea565b9050919050565b6000602082019050818103600083015261358b81612bd0565b9050919050565b600060208201905081810360008301526135ab81612c36565b9050919050565b600060208201905081810360008301526135cb81612c9c565b9050919050565b600060208201905081810360008301526135eb81612d02565b9050919050565b6000602082019050818103600083015261360b81612da8565b9050919050565b6000602082019050818103600083015261362b81612de8565b9050919050565b6000602082019050818103600083015261364b81612e4e565b9050919050565b6000602082019050818103600083015261366b81612eb4565b9050919050565b6000602082019050818103600083015261368b81612f1a565b9050919050565b600060208201905081810360008301526136ab81612fc0565b9050919050565b600060208201905081810360008301526136cb816130a6565b9050919050565b60006020820190506136e760008301846131fe565b92915050565b6000604051905081810181811067ffffffffffffffff8211171561371457613713613aaa565b5b8060405250919050565b600067ffffffffffffffff82111561373957613738613aaa565b5b601f19601f8301169050602081019050919050565b60008190508160005260206000209050919050565b600081519050919050565b600081519050919050565b600082825260208201905092915050565b600082825260208201905092915050565b600081905092915050565b60006137b182613925565b91506137bc83613925565b9250827fffffffffffffffffffffffffffffffffffffffffffffffffffffffffffffffff038211156137f1576137f0613a1d565b5b828201905092915050565b600061380782613925565b915061381283613925565b92508261382257613821613a4c565b5b828204905092915050565b600061383882613925565b915061384383613925565b9250817fffffffffffffffffffffffffffffffffffffffffffffffffffffffffffffffff048311821515161561387c5761387b613a1d565b5b828202905092915050565b600061389282613925565b915061389d83613925565b9250828210156138b0576138af613a1d565b5b828203905092915050565b60006138c682613905565b9050919050565b60008115159050919050565b60007fffffffff0000000000000000000000000000000000000000000000000000000082169050919050565b600073ffffffffffffffffffffffffffffffffffffffff82169050919050565b6000819050919050565b82818337600083830152505050565b60005b8381101561395c578082015181840152602081019050613941565b8381111561396b576000848401525b50505050565b6000600282049050600182168061398957607f821691505b6020821081141561399d5761399c613a7b565b5b50919050565b60006139ae82613925565b91507fffffffffffffffffffffffffffffffffffffffffffffffffffffffffffffffff8214156139e1576139e0613a1d565b5b600182019050919050565b60006139f782613925565b9150613a0283613925565b925082613a1257613a11613a4c565b5b828206905092915050565b7f4e487b7100000000000000000000000000000000000000000000000000000000600052601160045260246000fd5b7f4e487b7100000000000000000000000000000000000000000000000000000000600052601260045260246000fd5b7f4e487b7100000000000000000000000000000000000000000000000000000000600052602260045260246000fd5b7f4e487b7100000000000000000000000000000000000000000000000000000000600052604160045260246000fd5b6000601f19601f8301169050919050565b613af3816138bb565b8114613afe57600080fd5b50565b613b0a816138cd565b8114613b1557600080fd5b50565b613b21816138d9565b8114613b2c57600080fd5b50565b613b3881613925565b8114613b4357600080fd5b5056fe416e204e465420772f20494420257320686173206265656e206d696e74656420746f2025734142434445464748494a4b4c4d4e4f505152535455565758595a6162636465666768696a6b6c6d6e6f707172737475767778797a303132333435363738392b2fa2646970667358221220956a7fa62486174a895ede090ef8a98a1dc222a78ccaa025bd3326abb058a5b764736f6c634300080000333c73766720786d6c6e733d27687474703a2f2f7777772e77332e6f72672f323030302f73766727207072657365727665417370656374526174696f3d27784d696e594d696e206d656574272076696577426f783d273020302033353020333530273e3c7374796c653e2e62617365207b2066696c6c3a2077686974653b20666f6e742d66616d696c793a2073616e732d73657269663b20666f6e742d73697a653a20313870783b207d3c2f7374796c653e3c726563742077696474683d273130302527206865696768743d2731303025272066696c6c3d27272f3e3c7465787420783d273530252720793d273530252720636c6173733d27626173652720646f6d696e616e742d626173656c696e653d276d6964646c652720746578742d616e63686f723d276d6964646c65273e",
  "linkReferences": {},
  "deployedLinkReferences": {}
}